{
  "abi": [
    {
      "type": "constructor",
      "inputs": [
        {
          "name": "easyXOwner_",
          "type": "address",
          "internalType": "contract IEasyXOwner"
        },
        {
          "name": "collateral_",
          "type": "address",
          "internalType": "contract IERC20Metadata"
        },
        {
          "name": "controller_",
          "type": "address",
          "internalType": "contract IController"
        }
      ],
      "stateMutability": "nonpayable"
    },
    {
      "type": "function",
      "name": "addPool",
      "inputs": [
        {
          "name": "lockTime_",
          "type": "uint40",
          "internalType": "uint40"
        },
        {
          "name": "multiplier_",
          "type": "uint16",
          "internalType": "uint16"
        }
      ],
      "outputs": [
        {
          "name": "",
          "type": "uint256",
          "internalType": "uint256"
        }
      ],
      "stateMutability": "nonpayable"
    },
    {
      "type": "function",
      "name": "allowance",
      "inputs": [
        {
          "name": "owner",
          "type": "address",
          "internalType": "address"
        },
        {
          "name": "spender",
          "type": "address",
          "internalType": "address"
        }
      ],
      "outputs": [
        {
          "name": "",
          "type": "uint256",
          "internalType": "uint256"
        }
      ],
      "stateMutability": "view"
    },
    {
      "type": "function",
      "name": "approve",
      "inputs": [
        {
          "name": "spender",
          "type": "address",
          "internalType": "address"
        },
        {
          "name": "amount",
          "type": "uint256",
          "internalType": "uint256"
        }
      ],
      "outputs": [
        {
          "name": "",
          "type": "bool",
          "internalType": "bool"
        }
      ],
      "stateMutability": "nonpayable"
    },
    {
      "type": "function",
      "name": "asset",
      "inputs": [],
      "outputs": [
        {
          "name": "",
          "type": "address",
          "internalType": "address"
        }
      ],
      "stateMutability": "view"
    },
    {
      "type": "function",
      "name": "availableLiquidity",
      "inputs": [],
      "outputs": [
        {
          "name": "",
          "type": "uint256",
          "internalType": "uint256"
        }
      ],
      "stateMutability": "view"
    },
    {
      "type": "function",
      "name": "balanceOf",
      "inputs": [
        {
          "name": "account",
          "type": "address",
          "internalType": "address"
        }
      ],
      "outputs": [
        {
          "name": "",
          "type": "uint256",
          "internalType": "uint256"
        }
      ],
      "stateMutability": "view"
    },
    {
      "type": "function",
      "name": "canTransferLps",
      "inputs": [
        {
          "name": "user_",
          "type": "address",
          "internalType": "address"
        }
      ],
      "outputs": [
        {
          "name": "",
          "type": "bool",
          "internalType": "bool"
        }
      ],
      "stateMutability": "view"
    },
    {
      "type": "function",
      "name": "canWithdrawLps",
      "inputs": [
        {
          "name": "user_",
          "type": "address",
          "internalType": "address"
        }
      ],
      "outputs": [
        {
          "name": "",
          "type": "bool",
          "internalType": "bool"
        }
      ],
      "stateMutability": "view"
    },
    {
      "type": "function",
      "name": "controller",
      "inputs": [],
      "outputs": [
        {
          "name": "",
          "type": "address",
          "internalType": "contract IController"
        }
      ],
      "stateMutability": "view"
    },
    {
      "type": "function",
      "name": "convertToAssets",
      "inputs": [
        {
          "name": "shares",
          "type": "uint256",
          "internalType": "uint256"
        }
      ],
      "outputs": [
        {
          "name": "assets",
          "type": "uint256",
          "internalType": "uint256"
        }
      ],
      "stateMutability": "view"
    },
    {
      "type": "function",
      "name": "convertToShares",
      "inputs": [
        {
          "name": "assets",
          "type": "uint256",
          "internalType": "uint256"
        }
      ],
      "outputs": [
        {
          "name": "shares",
          "type": "uint256",
          "internalType": "uint256"
        }
      ],
      "stateMutability": "view"
    },
    {
      "type": "function",
      "name": "decimals",
      "inputs": [],
      "outputs": [
        {
          "name": "",
          "type": "uint8",
          "internalType": "uint8"
        }
      ],
      "stateMutability": "view"
    },
    {
      "type": "function",
      "name": "decreaseAllowance",
      "inputs": [
        {
          "name": "spender",
          "type": "address",
          "internalType": "address"
        },
        {
          "name": "subtractedValue",
          "type": "uint256",
          "internalType": "uint256"
        }
      ],
      "outputs": [
        {
          "name": "",
          "type": "bool",
          "internalType": "bool"
        }
      ],
      "stateMutability": "nonpayable"
    },
    {
      "type": "function",
      "name": "defaultLockTime",
      "inputs": [],
      "outputs": [
        {
          "name": "",
          "type": "uint256",
          "internalType": "uint256"
        }
      ],
      "stateMutability": "view"
    },
    {
      "type": "function",
      "name": "deposit",
      "inputs": [
        {
          "name": "assets_",
          "type": "uint256",
          "internalType": "uint256"
        },
        {
          "name": "minShares_",
          "type": "uint256",
          "internalType": "uint256"
        }
      ],
      "outputs": [
        {
          "name": "",
          "type": "uint256",
          "internalType": "uint256"
        }
      ],
      "stateMutability": "nonpayable"
    },
    {
      "type": "function",
      "name": "depositAndLock",
      "inputs": [
        {
          "name": "assets_",
          "type": "uint256",
          "internalType": "uint256"
        },
        {
          "name": "minShares_",
          "type": "uint256",
          "internalType": "uint256"
        },
        {
          "name": "poolId_",
          "type": "uint256",
          "internalType": "uint256"
        }
      ],
      "outputs": [
        {
          "name": "",
          "type": "uint256",
          "internalType": "uint256"
        }
      ],
      "stateMutability": "nonpayable"
    },
    {
      "type": "function",
      "name": "depositFees",
      "inputs": [
        {
          "name": "amount_",
          "type": "uint256",
          "internalType": "uint256"
        }
      ],
      "outputs": [],
      "stateMutability": "nonpayable"
    },
    {
      "type": "function",
      "name": "depositProfit",
      "inputs": [
        {
          "name": "profit_",
          "type": "uint256",
          "internalType": "uint256"
        }
      ],
      "outputs": [],
      "stateMutability": "nonpayable"
    },
    {
      "type": "function",
      "name": "earlyWithdrawalFee",
      "inputs": [],
      "outputs": [
        {
          "name": "",
          "type": "uint256",
          "internalType": "uint256"
        }
      ],
      "stateMutability": "view"
    },
    {
      "type": "function",
      "name": "earlyWithdrawalTime",
      "inputs": [],
      "outputs": [
        {
          "name": "",
          "type": "uint256",
          "internalType": "uint256"
        }
      ],
      "stateMutability": "view"
    },
    {
      "type": "function",
      "name": "easyXOwner",
      "inputs": [],
      "outputs": [
        {
          "name": "",
          "type": "address",
          "internalType": "contract IEasyXOwner"
        }
      ],
      "stateMutability": "view"
    },
    {
      "type": "function",
      "name": "increaseAllowance",
      "inputs": [
        {
          "name": "spender",
          "type": "address",
          "internalType": "address"
        },
        {
          "name": "addedValue",
          "type": "uint256",
          "internalType": "uint256"
        }
      ],
      "outputs": [
        {
          "name": "",
          "type": "bool",
          "internalType": "bool"
        }
      ],
      "stateMutability": "nonpayable"
    },
    {
      "type": "function",
      "name": "initialize",
      "inputs": [
        {
          "name": "name_",
          "type": "string",
          "internalType": "string"
        },
        {
          "name": "symbol_",
          "type": "string",
          "internalType": "string"
        },
        {
          "name": "defaultLockTime_",
          "type": "uint256",
          "internalType": "uint256"
        },
        {
          "name": "earlyWithdrawalFee_",
          "type": "uint256",
          "internalType": "uint256"
        },
        {
          "name": "earlyWithdrawalTime_",
          "type": "uint256",
          "internalType": "uint256"
        },
        {
          "name": "minimumAmount_",
          "type": "uint256",
          "internalType": "uint256"
        },
        {
          "name": "blastPoints_",
          "type": "address",
          "internalType": "contract IBlastPoints"
        },
        {
          "name": "_pointsOperator",
          "type": "address",
          "internalType": "address"
        },
        {
          "name": "blast_",
          "type": "address",
          "internalType": "contract IBlast"
        },
        {
          "name": "blastGovernor_",
          "type": "address",
          "internalType": "address"
        }
      ],
      "outputs": [],
      "stateMutability": "nonpayable"
    },
    {
      "type": "function",
      "name": "lastDepositTime",
      "inputs": [
        {
          "name": "",
          "type": "address",
          "internalType": "address"
        }
      ],
      "outputs": [
        {
          "name": "",
          "type": "uint256",
          "internalType": "uint256"
        }
      ],
      "stateMutability": "view"
    },
    {
      "type": "function",
      "name": "lockShares",
      "inputs": [
        {
          "name": "shares_",
          "type": "uint256",
          "internalType": "uint256"
        },
        {
          "name": "poolId_",
          "type": "uint256",
          "internalType": "uint256"
        }
      ],
      "outputs": [],
      "stateMutability": "nonpayable"
    },
    {
      "type": "function",
      "name": "minimumAmount",
      "inputs": [],
      "outputs": [
        {
          "name": "",
          "type": "uint256",
          "internalType": "uint256"
        }
      ],
      "stateMutability": "view"
    },
    {
      "type": "function",
      "name": "name",
      "inputs": [],
      "outputs": [
        {
          "name": "",
          "type": "string",
          "internalType": "string"
        }
      ],
      "stateMutability": "view"
    },
    {
      "type": "function",
      "name": "pools",
      "inputs": [
        {
          "name": "",
          "type": "uint256",
          "internalType": "uint256"
        }
      ],
      "outputs": [
        {
          "name": "lockTime",
          "type": "uint40",
          "internalType": "uint40"
        },
        {
          "name": "multiplier",
          "type": "uint16",
          "internalType": "uint16"
        },
        {
          "name": "amount",
          "type": "uint256",
          "internalType": "uint256"
        },
        {
          "name": "totalPoolShares",
          "type": "uint256",
          "internalType": "uint256"
        }
      ],
      "stateMutability": "view"
    },
    {
      "type": "function",
      "name": "previewDeposit",
      "inputs": [
        {
          "name": "assets",
          "type": "uint256",
          "internalType": "uint256"
        }
      ],
      "outputs": [
        {
          "name": "",
          "type": "uint256",
          "internalType": "uint256"
        }
      ],
      "stateMutability": "view"
    },
    {
      "type": "function",
      "name": "previewMint",
      "inputs": [
        {
          "name": "shares",
          "type": "uint256",
          "internalType": "uint256"
        }
      ],
      "outputs": [
        {
          "name": "",
          "type": "uint256",
          "internalType": "uint256"
        }
      ],
      "stateMutability": "view"
    },
    {
      "type": "function",
      "name": "previewPoolOf",
      "inputs": [
        {
          "name": "user_",
          "type": "address",
          "internalType": "address"
        },
        {
          "name": "poolId_",
          "type": "uint256",
          "internalType": "uint256"
        }
      ],
      "outputs": [
        {
          "name": "userPool",
          "type": "tuple",
          "internalType": "struct UserPoolDetails",
          "components": [
            {
              "name": "poolId",
              "type": "uint256",
              "internalType": "uint256"
            },
            {
              "name": "totalPoolShares",
              "type": "uint256",
              "internalType": "uint256"
            },
            {
              "name": "unlockedPoolShares",
              "type": "uint256",
              "internalType": "uint256"
            },
            {
              "name": "totalShares",
              "type": "uint256",
              "internalType": "uint256"
            },
            {
              "name": "unlockedShares",
              "type": "uint256",
              "internalType": "uint256"
            },
            {
              "name": "totalAssets",
              "type": "uint256",
              "internalType": "uint256"
            },
            {
              "name": "unlockedAssets",
              "type": "uint256",
              "internalType": "uint256"
            }
          ]
        }
      ],
      "stateMutability": "view"
    },
    {
      "type": "function",
      "name": "previewPoolsOf",
      "inputs": [
        {
          "name": "user_",
          "type": "address",
          "internalType": "address"
        }
      ],
      "outputs": [
        {
          "name": "userPools",
          "type": "tuple[]",
          "internalType": "struct UserPoolDetails[]",
          "components": [
            {
              "name": "poolId",
              "type": "uint256",
              "internalType": "uint256"
            },
            {
              "name": "totalPoolShares",
              "type": "uint256",
              "internalType": "uint256"
            },
            {
              "name": "unlockedPoolShares",
              "type": "uint256",
              "internalType": "uint256"
            },
            {
              "name": "totalShares",
              "type": "uint256",
              "internalType": "uint256"
            },
            {
              "name": "unlockedShares",
              "type": "uint256",
              "internalType": "uint256"
            },
            {
              "name": "totalAssets",
              "type": "uint256",
              "internalType": "uint256"
            },
            {
              "name": "unlockedAssets",
              "type": "uint256",
              "internalType": "uint256"
            }
          ]
        }
      ],
      "stateMutability": "view"
    },
    {
      "type": "function",
      "name": "previewRedeem",
      "inputs": [
        {
          "name": "shares",
          "type": "uint256",
          "internalType": "uint256"
        }
      ],
      "outputs": [
        {
          "name": "",
          "type": "uint256",
          "internalType": "uint256"
        }
      ],
      "stateMutability": "view"
    },
    {
      "type": "function",
      "name": "previewRedeemPoolShares",
      "inputs": [
        {
          "name": "poolShares_",
          "type": "uint256",
          "internalType": "uint256"
        },
        {
          "name": "poolId_",
          "type": "uint256",
          "internalType": "uint256"
        }
      ],
      "outputs": [
        {
          "name": "",
          "type": "uint256",
          "internalType": "uint256"
        }
      ],
      "stateMutability": "view"
    },
    {
      "type": "function",
      "name": "previewWithdraw",
      "inputs": [
        {
          "name": "assets",
          "type": "uint256",
          "internalType": "uint256"
        }
      ],
      "outputs": [
        {
          "name": "",
          "type": "uint256",
          "internalType": "uint256"
        }
      ],
      "stateMutability": "view"
    },
    {
      "type": "function",
      "name": "requestLossPayout",
      "inputs": [
        {
          "name": "loss_",
          "type": "uint256",
          "internalType": "uint256"
        }
      ],
      "outputs": [],
      "stateMutability": "nonpayable"
    },
    {
      "type": "function",
      "name": "symbol",
      "inputs": [],
      "outputs": [
        {
          "name": "",
          "type": "string",
          "internalType": "string"
        }
      ],
      "stateMutability": "view"
    },
    {
      "type": "function",
      "name": "totalAssets",
      "inputs": [],
      "outputs": [
        {
          "name": "",
          "type": "uint256",
          "internalType": "uint256"
        }
      ],
      "stateMutability": "view"
    },
    {
      "type": "function",
      "name": "totalSupply",
      "inputs": [],
      "outputs": [
        {
          "name": "",
          "type": "uint256",
          "internalType": "uint256"
        }
      ],
      "stateMutability": "view"
    },
    {
      "type": "function",
      "name": "transfer",
      "inputs": [
        {
          "name": "to",
          "type": "address",
          "internalType": "address"
        },
        {
          "name": "amount",
          "type": "uint256",
          "internalType": "uint256"
        }
      ],
      "outputs": [
        {
          "name": "",
          "type": "bool",
          "internalType": "bool"
        }
      ],
      "stateMutability": "nonpayable"
    },
    {
      "type": "function",
      "name": "transferFrom",
      "inputs": [
        {
          "name": "from",
          "type": "address",
          "internalType": "address"
        },
        {
          "name": "to",
          "type": "address",
          "internalType": "address"
        },
        {
          "name": "amount",
          "type": "uint256",
          "internalType": "uint256"
        }
      ],
      "outputs": [
        {
          "name": "",
          "type": "bool",
          "internalType": "bool"
        }
      ],
      "stateMutability": "nonpayable"
    },
    {
      "type": "function",
      "name": "unlockShares",
      "inputs": [
        {
          "name": "poolId_",
          "type": "uint256",
          "internalType": "uint256"
        },
        {
          "name": "poolShares_",
          "type": "uint256",
          "internalType": "uint256"
        }
      ],
      "outputs": [
        {
          "name": "lpAmount",
          "type": "uint256",
          "internalType": "uint256"
        }
      ],
      "stateMutability": "nonpayable"
    },
    {
      "type": "function",
      "name": "updateDefaultLockTime",
      "inputs": [
        {
          "name": "defaultLockTime_",
          "type": "uint256",
          "internalType": "uint256"
        }
      ],
      "outputs": [],
      "stateMutability": "nonpayable"
    },
    {
      "type": "function",
      "name": "updateEarlyWithdrawalFee",
      "inputs": [
        {
          "name": "earlyWithdrawalFee_",
          "type": "uint256",
          "internalType": "uint256"
        }
      ],
      "outputs": [],
      "stateMutability": "nonpayable"
    },
    {
      "type": "function",
      "name": "updateEarlyWithdrawalTime",
      "inputs": [
        {
          "name": "earlyWithdrawalTime_",
          "type": "uint256",
          "internalType": "uint256"
        }
      ],
      "outputs": [],
      "stateMutability": "nonpayable"
    },
    {
      "type": "function",
      "name": "updateMinimumAmount",
      "inputs": [
        {
          "name": "minimumAmount_",
          "type": "uint256",
          "internalType": "uint256"
        }
      ],
      "outputs": [],
      "stateMutability": "nonpayable"
    },
    {
      "type": "function",
      "name": "updatePool",
      "inputs": [
        {
          "name": "poolId_",
          "type": "uint256",
          "internalType": "uint256"
        },
        {
          "name": "lockTime_",
          "type": "uint40",
          "internalType": "uint40"
        },
        {
          "name": "multiplier_",
          "type": "uint16",
          "internalType": "uint16"
        }
      ],
      "outputs": [],
      "stateMutability": "nonpayable"
    },
    {
      "type": "function",
      "name": "userPoolInfo",
      "inputs": [
        {
          "name": "",
          "type": "uint256",
          "internalType": "uint256"
        },
        {
          "name": "",
          "type": "address",
          "internalType": "address"
        }
      ],
      "outputs": [
        {
          "name": "userPoolShares",
          "type": "uint256",
          "internalType": "uint256"
        },
        {
          "name": "unlockedPoolShares",
          "type": "uint256",
          "internalType": "uint256"
        },
        {
          "name": "nextIndex",
          "type": "uint128",
          "internalType": "uint128"
        },
        {
          "name": "length",
          "type": "uint128",
          "internalType": "uint128"
        }
      ],
      "stateMutability": "view"
    },
    {
      "type": "function",
      "name": "userWithdrawalFee",
      "inputs": [
        {
          "name": "user_",
          "type": "address",
          "internalType": "address"
        }
      ],
      "outputs": [
        {
          "name": "",
          "type": "uint256",
          "internalType": "uint256"
        }
      ],
      "stateMutability": "view"
    },
    {
      "type": "function",
      "name": "withdraw",
      "inputs": [
        {
          "name": "shares_",
          "type": "uint256",
          "internalType": "uint256"
        },
        {
          "name": "minOut_",
          "type": "uint256",
          "internalType": "uint256"
        }
      ],
      "outputs": [
        {
          "name": "",
          "type": "uint256",
          "internalType": "uint256"
        }
      ],
      "stateMutability": "nonpayable"
    },
    {
      "type": "function",
      "name": "withdrawFromPool",
      "inputs": [
        {
          "name": "poolId_",
          "type": "uint256",
          "internalType": "uint256"
        },
        {
          "name": "poolShares_",
          "type": "uint256",
          "internalType": "uint256"
        },
        {
          "name": "minOut_",
          "type": "uint256",
          "internalType": "uint256"
        }
      ],
      "outputs": [
        {
          "name": "",
          "type": "uint256",
          "internalType": "uint256"
        }
      ],
      "stateMutability": "nonpayable"
    },
    {
      "type": "event",
      "name": "AddedToPool",
      "inputs": [
        {
          "name": "poolId",
          "type": "uint256",
          "indexed": true,
          "internalType": "uint256"
        },
        {
          "name": "assetAmount",
          "type": "uint256",
          "indexed": false,
          "internalType": "uint256"
        },
        {
          "name": "amount",
          "type": "uint256",
          "indexed": false,
          "internalType": "uint256"
        },
        {
          "name": "shares",
          "type": "uint256",
          "indexed": false,
          "internalType": "uint256"
        }
      ],
      "anonymous": false
    },
    {
      "type": "event",
      "name": "Approval",
      "inputs": [
        {
          "name": "owner",
          "type": "address",
          "indexed": true,
          "internalType": "address"
        },
        {
          "name": "spender",
          "type": "address",
          "indexed": true,
          "internalType": "address"
        },
        {
          "name": "value",
          "type": "uint256",
          "indexed": false,
          "internalType": "uint256"
        }
      ],
      "anonymous": false
    },
    {
      "type": "event",
      "name": "CollectedEarlyWithdrawalFee",
      "inputs": [
        {
          "name": "user",
          "type": "address",
          "indexed": false,
          "internalType": "address"
        },
        {
          "name": "amount",
          "type": "uint256",
          "indexed": false,
          "internalType": "uint256"
        }
      ],
      "anonymous": false
    },
    {
      "type": "event",
      "name": "Deposit",
      "inputs": [
        {
          "name": "caller",
          "type": "address",
          "indexed": true,
          "internalType": "address"
        },
        {
          "name": "owner",
          "type": "address",
          "indexed": true,
          "internalType": "address"
        },
        {
          "name": "assets",
          "type": "uint256",
          "indexed": false,
          "internalType": "uint256"
        },
        {
          "name": "shares",
          "type": "uint256",
          "indexed": false,
          "internalType": "uint256"
        }
      ],
      "anonymous": false
    },
    {
      "type": "event",
      "name": "DepositedFees",
      "inputs": [
        {
          "name": "liquidityPoolAdapter",
          "type": "address",
          "indexed": false,
          "internalType": "address"
        },
        {
          "name": "amount",
          "type": "uint256",
          "indexed": false,
          "internalType": "uint256"
        }
      ],
      "anonymous": false
    },
    {
      "type": "event",
      "name": "DepositedProfit",
      "inputs": [
        {
          "name": "liquidityPoolAdapter",
          "type": "address",
          "indexed": true,
          "internalType": "address"
        },
        {
          "name": "profit",
          "type": "uint256",
          "indexed": false,
          "internalType": "uint256"
        }
      ],
      "anonymous": false
    },
    {
      "type": "event",
      "name": "Initialized",
      "inputs": [
        {
          "name": "version",
          "type": "uint8",
          "indexed": false,
          "internalType": "uint8"
        }
      ],
      "anonymous": false
    },
    {
      "type": "event",
      "name": "PayedOutLoss",
      "inputs": [
        {
          "name": "liquidityPoolAdapter",
          "type": "address",
          "indexed": true,
          "internalType": "address"
        },
        {
          "name": "loss",
          "type": "uint256",
          "indexed": false,
          "internalType": "uint256"
        }
      ],
      "anonymous": false
    },
    {
      "type": "event",
      "name": "PoolAdded",
      "inputs": [
        {
          "name": "poolId",
          "type": "uint256",
          "indexed": true,
          "internalType": "uint256"
        },
        {
          "name": "lockTime",
          "type": "uint256",
          "indexed": false,
          "internalType": "uint256"
        },
        {
          "name": "multiplier",
          "type": "uint256",
          "indexed": false,
          "internalType": "uint256"
        }
      ],
      "anonymous": false
    },
    {
      "type": "event",
      "name": "PoolUpdated",
      "inputs": [
        {
          "name": "poolId",
          "type": "uint256",
          "indexed": true,
          "internalType": "uint256"
        },
        {
          "name": "lockTime",
          "type": "uint256",
          "indexed": false,
          "internalType": "uint256"
        },
        {
          "name": "multiplier",
          "type": "uint256",
          "indexed": false,
          "internalType": "uint256"
        }
      ],
      "anonymous": false
    },
    {
      "type": "event",
      "name": "RemovedFromPool",
      "inputs": [
        {
          "name": "user",
          "type": "address",
          "indexed": true,
          "internalType": "address"
        },
        {
          "name": "poolId",
          "type": "uint256",
          "indexed": true,
          "internalType": "uint256"
        },
        {
          "name": "poolShares",
          "type": "uint256",
          "indexed": false,
          "internalType": "uint256"
        },
        {
          "name": "lpShares",
          "type": "uint256",
          "indexed": false,
          "internalType": "uint256"
        }
      ],
      "anonymous": false
    },
    {
      "type": "event",
      "name": "Transfer",
      "inputs": [
        {
          "name": "from",
          "type": "address",
          "indexed": true,
          "internalType": "address"
        },
        {
          "name": "to",
          "type": "address",
          "indexed": true,
          "internalType": "address"
        },
        {
          "name": "value",
          "type": "uint256",
          "indexed": false,
          "internalType": "uint256"
        }
      ],
      "anonymous": false
    },
    {
      "type": "event",
      "name": "UpdatedDefaultLockTime",
      "inputs": [
        {
          "name": "defaultLockTime",
          "type": "uint256",
          "indexed": false,
          "internalType": "uint256"
        }
      ],
      "anonymous": false
    },
    {
      "type": "event",
      "name": "UpdatedEarlyWithdrawalFee",
      "inputs": [
        {
          "name": "earlyWithdrawalFee",
          "type": "uint256",
          "indexed": false,
          "internalType": "uint256"
        }
      ],
      "anonymous": false
    },
    {
      "type": "event",
      "name": "UpdatedEarlyWithdrawalTime",
      "inputs": [
        {
          "name": "earlyWithdrawalTime",
          "type": "uint256",
          "indexed": false,
          "internalType": "uint256"
        }
      ],
      "anonymous": false
    },
    {
      "type": "event",
      "name": "UpdatedMinimumAmount",
      "inputs": [
        {
          "name": "minimumAmount",
          "type": "uint256",
          "indexed": false,
          "internalType": "uint256"
        }
      ],
      "anonymous": false
    },
    {
      "type": "event",
      "name": "Withdraw",
      "inputs": [
        {
          "name": "caller",
          "type": "address",
          "indexed": true,
          "internalType": "address"
        },
        {
          "name": "receiver",
          "type": "address",
          "indexed": true,
          "internalType": "address"
        },
        {
          "name": "owner",
          "type": "address",
          "indexed": true,
          "internalType": "address"
        },
        {
          "name": "assets",
          "type": "uint256",
          "indexed": false,
          "internalType": "uint256"
        },
        {
          "name": "shares",
          "type": "uint256",
          "indexed": false,
          "internalType": "uint256"
        }
      ],
      "anonymous": false
    }
  ],
  "bytecode": {
    "object": "0x60e06040523480156200001157600080fd5b5060405162003d6638038062003d668339810160408190526200003491620001f3565b81836001600160a01b038116620000c45760405162461bcd60e51b815260206004820152604360248201527f45617379584f776e61626c653a3a636f6e7374727563746f723a20456173795860448201527f206f776e657220636f6e747261637420616464726573732063616e6e6f74206260648201526206520360ec1b608482015260a4015b60405180910390fd5b806001600160a01b03166080816001600160a01b031681525050506012816001600160a01b031663313ce5676040518163ffffffff1660e01b8152600401602060405180830381865afa15801562000120573d6000803e3d6000fd5b505050506040513d601f19601f8201168201806040525081019062000146919062000247565b60ff161115620001bf5760405162461bcd60e51b815260206004820152603d60248201527f4c6971756964697479506f6f6c5661756c743a3a636f6e7374727563746f723a60448201527f20617373657420646563696d616c73206d757374206265203c3d2031380000006064820152608401620000bb565b6001600160a01b0390811660a0521660c05250620002739050565b6001600160a01b0381168114620001f057600080fd5b50565b6000806000606084860312156200020957600080fd5b83516200021681620001da565b60208501519093506200022981620001da565b60408501519092506200023c81620001da565b809150509250925092565b6000602082840312156200025a57600080fd5b815160ff811681146200026c57600080fd5b9392505050565b60805160a05160c051613a6f620002f7600039600081816106a80152611d5a01526000818161037e0152818161071c0152818161093101528181610ff201528181611423015281816114670152818161159b0152818161197101528181611b7101528181612bac0152612c7e0152600081816104ec0152612b270152613a6f6000f3fe608060405234801561001057600080fd5b50600436106102505760003560e01c80628c687e1461025557806301e1d1141461026a578063025277531461028557806306fdde03146102a557806307a2d13a146102ba578063095ea7b3146102cd5780630a28a477146102f057806316330d401461030357806318160ddd1461030c5780632162fe941461031457806323b872dd14610334578063313ce5671461034757806333c19ab0146103565780633632e6c61461036957806338d52e0f1461037c57806339509351146103ab578063427eb106146103be578063441a3e70146103d15780634507d9f6146103e45780634cdad506146102ba5780634e27072a146103f75780635a9adde61461047457806370a082311461048757806374375359146104b05780637e18f27f146104b857806388cf36db146104c15780638b8f55f0146104d45780638e1e682d146104e75780638f8068f91461050e57806395d89b4114610521578063a1ce6d0814610529578063a457c2d71461053c578063a7fac4f81461054f578063a9059cbb14610562578063abfb627114610575578063ac4afa381461057e578063b3d7f6b9146105bc578063bb0c8298146105cf578063bb8e5b57146105d8578063c6e6f592146105eb578063d0251d27146105fe578063dd62ed3e1461061e578063de4cd4f414610631578063dea71b6614610644578063e2bbb15814610657578063e92745841461066a578063ebdac0901461067d578063ecc8579014610690578063ef8b30f7146105eb578063f77c4791146106a3578063fdb51138146106ca575b600080fd5b610268610263366004613151565b6106dd565b005b610272610702565b6040519081526020015b60405180910390f35b610272610293366004613198565b609c6020526000908152604090205481565b6102ad610797565b60405161027c91906131d9565b6102726102c836600461320c565b610829565b6102e06102db366004613225565b61083c565b604051901515815260200161027c565b6102726102fe36600461320c565b610854565b61027260985481565b603554610272565b610327610322366004613225565b610861565b60405161027c9190613295565b6102e06103423660046132a3565b6108f6565b6040516018815260200161027c565b61026861036436600461320c565b61091c565b61026861037736600461320c565b610992565b7f00000000000000000000000000000000000000000000000000000000000000005b60405161027c91906132e4565b6102e06103b9366004613225565b6109a6565b6102686103cc36600461331f565b6109c8565b6102726103df366004613151565b610b5c565b6102726103f236600461335b565b610b7c565b61044561040536600461338e565b609d6020908152600092835260408084209091529082529020805460018201546002909201549091906001600160801b0380821691600160801b90041684565b6040805194855260208501939093526001600160801b039182169284019290925216606082015260800161027c565b610268610482366004613460565b610cd7565b610272610495366004613198565b6001600160a01b031660009081526033602052604090205490565b610272610f3b565b61027260975481565b6102686104cf36600461320c565b610f67565b6102726104e236600461352e565b61104b565b61039e7f000000000000000000000000000000000000000000000000000000000000000081565b6102e061051c366004613198565b611085565b6102ad6110d0565b61027261053736600461352e565b6110df565b6102e061054a366004613225565b611129565b61027261055d366004613198565b6111af565b6102e0610570366004613225565b6111ec565b61027260995481565b61059161058c36600461320c565b6111fa565b6040805164ffffffffff909516855261ffff909316602085015291830152606082015260800161027c565b6102726105ca36600461320c565b611242565b610272609a5481565b6102686105e636600461320c565b61124f565b6102726105f936600461320c565b611260565b61061161060c366004613198565b61126d565b60405161027c919061355a565b61027261062c3660046135a8565b611311565b61026861063f36600461320c565b61133c565b61026861065236600461320c565b61134d565b610272610665366004613151565b61135e565b610272610678366004613151565b611375565b61026861068b36600461320c565b6113ae565b6102e061069e366004613198565b611602565b61039e7f000000000000000000000000000000000000000000000000000000000000000081565b6102726106d8366004613151565b611633565b806106e781611642565b6106f23330856116a9565b6106fd83833361184f565b505050565b6040516370a0823160e01b81526000906001600160a01b037f000000000000000000000000000000000000000000000000000000000000000016906370a08231906107519030906004016132e4565b602060405180830381865afa15801561076e573d6000803e3d6000fd5b505050506040513d601f19601f8201168201806040525081019061079291906135d6565b905090565b6060603680546107a6906135ef565b80601f01602080910402602001604051908101604052809291908181526020018280546107d2906135ef565b801561081f5780601f106107f45761010080835404028352916020019161081f565b820191906000526020600020905b81548152906001019060200180831161080257829003601f168201915b5050505050905090565b600061083682600061193f565b92915050565b60003361084a818585611a13565b5060019392505050565b6000610836826001611b37565b610869613114565b8181526000828152609d602090815260408083206001600160a01b03871684528252909120549082015261089d8383611bf1565b604082015260208101516108b19083611c33565b606082015260408101516108c59083611c33565b608082015260608101516108d890610829565b60a082015260808101516108eb90610829565b60c082015292915050565b600033610904858285611ccf565b61090f8585856116a9565b60019150505b9392505050565b610924611d43565b6109596001600160a01b037f000000000000000000000000000000000000000000000000000000000000000016333084611e65565b60405181815233907f0fad77411002e3804fe134eb04eaaa8cd6ec6bfa7e00b8fc745fb62d0ac7a229906020015b60405180910390a250565b61099a611ed0565b6109a381611f44565b50565b60003361084a8185856109b98383611311565b6109c39190613639565b611a13565b6109d0611ed0565b826109da81611642565b8264ffffffffff168261ffff166109f18282611f80565b64ffffffffff851615610a3d5784609b8781548110610a1257610a1261364c565b60009182526020909120600390910201805464ffffffffff191664ffffffffff929092169190911790555b61ffff841615610a8b5783609b8781548110610a5b57610a5b61364c565b906000526020600020906003020160000160056101000a81548161ffff021916908361ffff160217905550610b1a565b8464ffffffffff16600003610b1a576000609b8781548110610aaf57610aaf61364c565b60009182526020822060039190910201805464ffffffffff191664ffffffffff9390931692909217909155609b805488908110610aee57610aee61364c565b906000526020600020906003020160000160056101000a81548161ffff021916908361ffff1602179055505b857f17b8644f386d1c7c7138ef98b3c8035622bbe94d7be9b26f71d2654a547c29438686604051610b4c929190613662565b60405180910390a2505050505050565b600033610b688161205a565b610b74338585336120d5565b949350505050565b6000610b86611ed0565b8264ffffffffff168261ffff16610b9d8282611f80565b6040805160808101825264ffffffffff808816825261ffff80881660208401908152600094840185815260608501868152609b80546001818101835598829052965160039097027fbba9db4cdbea0a37c207bbb83e20f828cd4441c49891101dc94fd20dc8efc349810180549551909616600160281b0266ffffffffffffff1990951697909616969096179290921790925590517fbba9db4cdbea0a37c207bbb83e20f828cd4441c49891101dc94fd20dc8efc34a830155517fbba9db4cdbea0a37c207bbb83e20f828cd4441c49891101dc94fd20dc8efc34b9091015554610c86919061367d565b7f82ee7435ef0ee2923870414c08a31ee8425975e7edc5bf0e673465cf6f42876d8686604051610cb7929190613662565b60405180910390a2609b54610cce9060019061367d565b95945050505050565b610cdf611ed0565b600054610100900460ff1615808015610cff5750600054600160ff909116105b80610d205750610d0e306121d0565b158015610d20575060005460ff166001145b610d885760405162461bcd60e51b815260206004820152602e60248201527f496e697469616c697a61626c653a20636f6e747261637420697320616c72656160448201526d191e481a5b9a5d1a585b1a5e995960921b60648201526084015b60405180910390fd5b6000805460ff191660011790558015610dab576000805461ff0019166101001790555b610db58b8b6121df565b610dbe89612210565b610dc788611f44565b610dd087612245565b610dd98661227a565b6040516336b91f2b60e01b81526001600160a01b038616906336b91f2b90610e059087906004016132e4565b600060405180830381600087803b158015610e1f57600080fd5b505af1158015610e33573d6000803e3d6000fd5b50505050826001600160a01b0316634e606c476040518163ffffffff1660e01b8152600401600060405180830381600087803b158015610e7257600080fd5b505af1158015610e86573d6000803e3d6000fd5b5050604051631d70c8d360e31b81526001600160a01b038616925063eb8646989150610eb69085906004016132e4565b600060405180830381600087803b158015610ed057600080fd5b505af1158015610ee4573d6000803e3d6000fd5b505050508015610f2e576000805461ff0019169055604051600181527f7f26b83ff96e1f2b6a682f133852f6798a09c465da95921460cefb38474024989060200160405180910390a15b5050505050505050505050565b600080610f46610702565b9050609a54811115610f5f57609a54610836908261367d565b506000919050565b610f6f611d43565b610f77610f3b565b811115610fe55760405162461bcd60e51b815260206004820152603660248201527f4c6971756964697479506f6f6c3a3a726571756573744c6f73735061796f75746044820152750e8814185e5bdd5d08195e18d959591cc81b1a5b5a5d60521b6064820152608401610d7f565b6110196001600160a01b037f00000000000000000000000000000000000000000000000000000000000000001633836122af565b60405181815233907f27e8b7804354654314ec131ec81b7dcfdb2fcd4097b0d8ce9c623a110f89fa6e90602001610987565b60008161105781611642565b33611061816122ce565b600061106e8787306122ea565b905061107b81863361184f565b9695505050505050565b6000806097546099541161109b5760975461109f565b6099545b6001600160a01b0384166000908152609c602052604090205490915081906110c7904261367d565b10159392505050565b6060603780546107a6906135ef565b6000336110eb8161205a565b846110f581611642565b33866111018282612367565b600061110e338a8a6123e1565b905061111c308289336120d5565b9998505050505050505050565b600033816111378286611311565b9050838110156111975760405162461bcd60e51b815260206004820152602560248201527f45524332303a2064656372656173656420616c6c6f77616e63652062656c6f77604482015264207a65726f60d81b6064820152608401610d7f565b6111a48286868403611a13565b506001949350505050565b6099546001600160a01b0382166000908152609c60205260408120549091906111d8904261367d565b106111e4576000610836565b505060985490565b60003361084a8185856116a9565b609b818154811061120a57600080fd5b600091825260209091206003909102018054600182015460029092015464ffffffffff82169350600160281b90910461ffff16919084565b600061083682600161193f565b611257611ed0565b6109a38161227a565b6000610836826000611b37565b609b546060906001600160401b0381111561128a5761128a6133be565b6040519080825280602002602001820160405280156112c357816020015b6112b0613114565b8152602001906001900390816112a85790505b50905060005b609b5481101561130b576112dd8382610861565b8282815181106112ef576112ef61364c565b60200260200101819052508061130490613690565b90506112c9565b50919050565b6001600160a01b03918216600090815260346020908152604080832093909416825291909152205490565b611344611ed0565b6109a381612210565b611355611ed0565b6109a381612245565b60003361136a816122ce565b610b748484336122ea565b60008261138181611642565b338461138d8282612367565b6113983387876123e1565b93506113a53033866116a9565b50505092915050565b6113b6611d43565b6000806113c16125e2565b9150915060006127106113d360355490565b6113dd91906136a9565b90506000811180156113ef5750600082115b1561158e5760006114008383613639565b61140a84876136a9565b61141491906136d6565b905061144d6001600160a01b037f0000000000000000000000000000000000000000000000000000000000000000163330848903611e65565b600061145882611260565b905061148f6001600160a01b037f000000000000000000000000000000000000000000000000000000000000000016333085611e65565b61149930826126ff565b8060005b600187516114ab919061367d565b81101561153e576000868883815181106114c7576114c761364c565b6020026020010151856114da91906136a9565b6114e491906136d6565b90506114f0818461367d565b925080609b83815481106115065761150661364c565b906000526020600020906003020160010160008282546115269190613639565b909155506115379150829050613690565b905061149d565b5080609b60018851611550919061367d565b815481106115605761156061364c565b906000526020600020906003020160010160008282546115809190613639565b909155506115c39350505050565b6115c36001600160a01b037f000000000000000000000000000000000000000000000000000000000000000016333087611e65565b7fcf323289bbef807fbbd59a5050cbd792b77eb4a4dfb2d9ad2bf2ddadf2f7146d33856040516115f49291906136f8565b60405180910390a150505050565b6097546001600160a01b0382166000908152609c602052604081205490919061162b904261367d565b101592915050565b60006109156102c88484611c33565b609b5481106109a35760405162461bcd60e51b815260206004820152602d60248201527f4c6971756964697479506f6f6c3a3a5f766572696679506f6f6c49643a20496e60448201526c1d985b1a59081c1bdbdb081a59609a1b6064820152608401610d7f565b6001600160a01b03831661170d5760405162461bcd60e51b815260206004820152602560248201527f45524332303a207472616e736665722066726f6d20746865207a65726f206164604482015264647265737360d81b6064820152608401610d7f565b6001600160a01b03821661176f5760405162461bcd60e51b815260206004820152602360248201527f45524332303a207472616e7366657220746f20746865207a65726f206164647260448201526265737360e81b6064820152608401610d7f565b61177a8383836127ba565b6001600160a01b038316600090815260336020526040902054818110156117f25760405162461bcd60e51b815260206004820152602660248201527f45524332303a207472616e7366657220616d6f756e7420657863656564732062604482015265616c616e636560d01b6064820152608401610d7f565b6001600160a01b038085166000818152603360205260408082208686039055928616808252908390208054860190559151600080516020613a1a833981519152906118409086815260200190565b60405180910390a35b50505050565b6000609b83815481106118645761186461364c565b90600052602060002090600302019050600061188b85836002015484600101546000612812565b9050848260010160008282546118a19190613639565b92505081905550808260020160008282546118bc9190613639565b909155508490507f22a341ae19a0f9f2abdafa7da4aa74e12342c7fdfb383ba96cd57f7d649a800c6118ed87610829565b6040805191825260208201899052810184905260600160405180910390a26000848152609d602090815260408083206001600160a01b038716845290915290206119378183612843565b505050505050565b60008061194b60355490565b9050801561196c5761196761195e610702565b85908386612902565b610b74565b610b747f00000000000000000000000000000000000000000000000000000000000000006001600160a01b031663313ce5676040518163ffffffff1660e01b8152600401602060405180830381865afa1580156119cd573d6000803e3d6000fd5b505050506040513d601f19601f820116820180604052508101906119f19190613711565b6119fc90600a613818565b60185b611a0a90600a613818565b86919086612902565b6001600160a01b038316611a755760405162461bcd60e51b8152602060048201526024808201527f45524332303a20617070726f76652066726f6d20746865207a65726f206164646044820152637265737360e01b6064820152608401610d7f565b6001600160a01b038216611ad65760405162461bcd60e51b815260206004820152602260248201527f45524332303a20617070726f766520746f20746865207a65726f206164647265604482015261737360f01b6064820152608401610d7f565b6001600160a01b0383811660008181526034602090815260408083209487168084529482529182902085905590518481527f8c5be1e5ebec7d5bd14f71427d1e84f3dd0314c0f7b2291e5b200ac8c7c3b925910160405180910390a3505050565b600080611b4360355490565b9050831580611b50575080155b611b605761196781611a0a610702565b610b74611b6f6018600a613818565b7f00000000000000000000000000000000000000000000000000000000000000006001600160a01b031663313ce5676040518163ffffffff1660e01b8152600401602060405180830381865afa158015611bcd573d6000803e3d6000fd5b505050506040513d601f19601f820116820180604052508101906119ff9190613711565b600080611bfe8484612953565b506000848152609d602090815260408083206001600160a01b0389168452909152902060010154909150610b74908290613639565b6000609b8281548110611c4857611c4861364c565b906000526020600020906003020160020154600003611c6957506000610836565b609b8281548110611c7c57611c7c61364c565b90600052602060002090600302016002015483609b8481548110611ca257611ca261364c565b906000526020600020906003020160010154611cbe91906136a9565b611cc891906136d6565b9050610836565b6000611cdb8484611311565b905060001981146118495781811015611d365760405162461bcd60e51b815260206004820152601d60248201527f45524332303a20696e73756666696369656e7420616c6c6f77616e63650000006044820152606401610d7f565b6118498484848403611a13565b6040516304746c9160e21b81526001600160a01b037f000000000000000000000000000000000000000000000000000000000000000016906311d1b24490611d8f9033906004016132e4565b602060405180830381865afa158015611dac573d6000803e3d6000fd5b505050506040513d601f19601f82011682018060405250810190611dd09190613827565b611e635760405162461bcd60e51b815260206004820152605860248201527f4c6971756964697479506f6f6c3a3a5f6f6e6c7956616c69644c69717569646960448201527f7479506f6f6c416461707465723a2043616c6c6572206e6f7420612076616c6960648201527732103634b8bab4b234ba3c903837b7b61030b230b83a32b960411b608482015260a401610d7f565b565b6040516001600160a01b03808516602483015283166044820152606481018290526118499085906323b872dd60e01b906084015b60408051601f198184030181529190526020810180516001600160e01b03166001600160e01b031990931692909217909152612a3b565b611ed8612b0d565b611e635760405162461bcd60e51b815260206004820152603760248201527f45617379584f776e61626c653a3a5f6f6e6c794f776e65723a2043616c6c65726044820152761034b9903737ba103a34329022b0b9bcac1037bbb732b960491b6064820152608401610d7f565b60988190556040518181527fe48c2f933bca64a94d714423bd7166d210f7b407fa3155ef1eba1a2da07eab60906020015b60405180910390a150565b6301e13380821115611fe65760405162461bcd60e51b815260206004820152603b60248201526000805160206139fa83398151915260448201527a746572733a20496e76616c696420706f6f6c206c6f636b54696d6560281b6064820152608401610d7f565b611ff361271060056136a9565b8111156120565760405162461bcd60e51b815260206004820152603d60248201526000805160206139fa83398151915260448201527f746572733a20496e76616c696420706f6f6c206d756c7469706c6965720000006064820152608401610d7f565b5050565b61206381611602565b6109a35760405162461bcd60e51b815260206004820152603e60248201527f4c6971756964697479506f6f6c3a3a5f63616e57697468647261774c70733a2060448201527f557365722063616e6e6f74207769746864726177204c5020746f6b656e7300006064820152608401610d7f565b6000806120e185610829565b9050838110156121485760405162461bcd60e51b815260206004820152602c60248201527f4c6971756964697479506f6f6c3a3a5f77697468647261775368617265733a2060448201526b42616420736c69707061676560a01b6064820152608401610d7f565b600061271082612157866111af565b61216191906136a9565b61216b91906136d6565b905080156121b95761217d818361367d565b91507f55496b977ce7f77799e5bf4f8b307b6d04b721cccff36a7c91e23c03b657081987826040516121b09291906136f8565b60405180910390a15b6121c6878589858a612b9d565b5095945050505050565b6001600160a01b03163b151590565b600054610100900460ff166122065760405162461bcd60e51b8152600401610d7f90613849565b6120568282612c39565b60978190556040518181527f1143aada006790fb2d1c560a75d017a13b3dcbd2623bd78165c2c6328b63aafb90602001611f75565b60998190556040518181527f8f78f745935cef3e19390320af9bb0c652c53da9685e437fd237e90e25c7b1f490602001611f75565b609a8190556040518181527febc76a46753862c004c1ecc3944bb49596175cfc3fdcd91114ee59b9157af13d90602001611f75565b6106fd8363a9059cbb60e01b8484604051602401611e999291906136f8565b6001600160a01b03166000908152609c60205260409020429055565b6000806122f685611260565b90508381101561235b5760405162461bcd60e51b815260206004820152602a60248201527f4c6971756964697479506f6f6c3a3a5f6465706f73697441737365743a2042616044820152696420736c69707061676560b01b6064820152608401610d7f565b610b7433848784612c79565b6000818152609d602090815260408083206001600160a01b0386168452909152812090806123958585612953565b909250905081156123da576002830180546001600160801b0319166001600160801b0383161790556001830180548391906000906123d4908490613639565b90915550505b5050505050565b60008082116124545760405162461bcd60e51b815260206004820152603960248201527f4c6971756964697479506f6f6c3a3a5f756e6c6f636b5368617265733a2043616044820152786e6e6f74207769746864726177207a65726f2073686172657360381b6064820152608401610d7f565b6000838152609d602090815260408083206001600160a01b038816845290915290206001830161248a5780600101549250612519565b82816001015410156125195760405162461bcd60e51b815260206004820152604c60248201527f4c6971756964697479506f6f6c3a3a5f756e6c6f636b5368617265733a20557360448201527f657220646f6573206e6f74206861766520656e6f75676820756e6c6f636b656460648201526b20706f6f6c2073686172657360a01b608482015260a401610d7f565b600181018054849003905580548390038155609b805460009190869081106125435761254361364c565b9060005260206000209060030201905061255d8486611c33565b925083816002016000828254612573919061367d565b925050819055508281600101600082825461258e919061367d565b9091555050604080518581526020810185905286916001600160a01b038916917f1dddef30248df2b5a7501816013bd6c6c8daaad56bc1f9bc057cd93638024b23910160405180910390a350509392505050565b609b546060906000906001600160401b03811115612602576126026133be565b60405190808252806020026020018201604052801561262b578160200160208202803683370190505b50915060005b82518110156126fa576000609b828154811061264f5761264f61364c565b6000918252602090912060039091020154600160281b900461ffff16905080156126e95780609b83815481106126875761268761364c565b9060005260206000209060030201600101546126a391906136a9565b8483815181106126b5576126b561364c565b6020026020010181815250508382815181106126d3576126d361364c565b6020026020010151836126e69190613639565b92505b506126f381613690565b9050612631565b509091565b6001600160a01b0382166127555760405162461bcd60e51b815260206004820152601f60248201527f45524332303a206d696e7420746f20746865207a65726f2061646472657373006044820152606401610d7f565b612761600083836127ba565b80603560008282546127739190613639565b90915550506001600160a01b038216600081815260336020908152604080832080548601905551848152600080516020613a1a833981519152910160405180910390a35050565b6001600160a01b03821630148015906127dc57506001600160a01b0383163014155b80156127f057506001600160a01b03831615155b801561280457506001600160a01b03821615155b156106fd576106fd83612cfd565b600084158061281f575083155b6128345761282f85858585612902565b610cce565b610cce8564e8d4a510006136a9565b808260000160008282546128579190613639565b909155505060408051808201825282815264ffffffffff42811660208084019182526002870180546001600160801b03600160801b918290048116600090815260038b0190945296909220945185559151600190940180549490931664ffffffffff19909416939093179091558054919091049091169060106128d983613894565b91906101000a8154816001600160801b0302191690836001600160801b03160217905550505050565b600080612910868686612d76565b90506001836002811115612926576129266138c2565b14801561294357506000848061293e5761293e6136c0565b868809115b15610cce5761107b600182613639565b6000806000609b848154811061296b5761296b61364c565b60009182526020808320600390920290910154868352609d825260408084206001600160a01b038a168552909252912060028101546001600160801b03808216955064ffffffffff90931693509091600160801b909104165b80841015612a3157600084815260038301602052604090206001015483906129f39064ffffffffff164261367d565b10612a1a576000848152600383016020526040902054612a139086613639565b9450612a1f565b612a31565b83612a2981613690565b9450506129c4565b5050509250929050565b6000612a90826040518060400160405280602081526020017f5361666545524332303a206c6f772d6c6576656c2063616c6c206661696c6564815250856001600160a01b0316612e609092919063ffffffff16565b8051909150156106fd5780806020019051810190612aae9190613827565b6106fd5760405162461bcd60e51b815260206004820152602a60248201527f5361666545524332303a204552433230206f7065726174696f6e20646964206e6044820152691bdd081cdd58d8d9595960b21b6064820152608401610d7f565b6040516337f1861d60e21b81526000906001600160a01b037f0000000000000000000000000000000000000000000000000000000000000000169063dfc6187490612b5c9033906004016132e4565b602060405180830381865afa158015612b79573d6000803e3d6000fd5b505050506040513d601f19601f820116820180604052508101906107929190613827565b612ba78382612e6f565b612bd27f000000000000000000000000000000000000000000000000000000000000000085846122af565b826001600160a01b0316846001600160a01b0316866001600160a01b03167ffbde797d201c681b91056529119e0b02407c7bb96a4a2c75c01fc9667232c8db8585604051612c2a929190918252602082015260400190565b60405180910390a45050505050565b600054610100900460ff16612c605760405162461bcd60e51b8152600401610d7f90613849565b6036612c6c838261391e565b5060376106fd828261391e565b612ca57f0000000000000000000000000000000000000000000000000000000000000000853085611e65565b612caf83826126ff565b826001600160a01b0316846001600160a01b03167fdcbc1c05240f31ff3ad067ef1ee35ce4997762752e3a095284754544f4c709d78484604051611840929190918252602082015260400190565b612d0681611085565b6109a35760405162461bcd60e51b815260206004820152603b60248201527f4c6971756964697479506f6f6c3a3a5f63616e5472616e736665723a2055736560448201527a722063616e6e6f74207472616e73666572204c5020746f6b656e7360281b6064820152608401610d7f565b6000808060001985870985870292508281108382030391505080600003612db057838281612da657612da66136c0565b0492505050610915565b808411612df75760405162461bcd60e51b81526020600482015260156024820152744d6174683a206d756c446976206f766572666c6f7760581b6044820152606401610d7f565b60008486880960026001871981018816978890046003810283188082028403028082028403028082028403028082028403028082028403029081029092039091026000889003889004909101858311909403939093029303949094049190911702949350505050565b6060610b748484600085612f9d565b6001600160a01b038216612ecf5760405162461bcd60e51b815260206004820152602160248201527f45524332303a206275726e2066726f6d20746865207a65726f206164647265736044820152607360f81b6064820152608401610d7f565b612edb826000836127ba565b6001600160a01b03821660009081526033602052604090205481811015612f4f5760405162461bcd60e51b815260206004820152602260248201527f45524332303a206275726e20616d6f756e7420657863656564732062616c616e604482015261636560f01b6064820152608401610d7f565b6001600160a01b0383166000818152603360209081526040808320868603905560358054879003905551858152919291600080516020613a1a833981519152910160405180910390a3505050565b606082471015612ffe5760405162461bcd60e51b815260206004820152602660248201527f416464726573733a20696e73756666696369656e742062616c616e636520666f6044820152651c8818d85b1b60d21b6064820152608401610d7f565b600080866001600160a01b0316858760405161301a91906139dd565b60006040518083038185875af1925050503d8060008114613057576040519150601f19603f3d011682016040523d82523d6000602084013e61305c565b606091505b509150915061306d87838387613078565b979650505050505050565b606083156130e55782516000036130de57613092856121d0565b6130de5760405162461bcd60e51b815260206004820152601d60248201527f416464726573733a2063616c6c20746f206e6f6e2d636f6e74726163740000006044820152606401610d7f565b5081610b74565b610b7483838151156130fa5781518083602001fd5b8060405162461bcd60e51b8152600401610d7f91906131d9565b6040518060e00160405280600081526020016000815260200160008152602001600081526020016000815260200160008152602001600081525090565b6000806040838503121561316457600080fd5b50508035926020909101359150565b6001600160a01b03811681146109a357600080fd5b803561319381613173565b919050565b6000602082840312156131aa57600080fd5b813561091581613173565b60005b838110156131d05781810151838201526020016131b8565b50506000910152565b60208152600082518060208401526131f88160408501602087016131b5565b601f01601f19169190910160400192915050565b60006020828403121561321e57600080fd5b5035919050565b6000806040838503121561323857600080fd5b823561324381613173565b946020939093013593505050565b805182526020810151602083015260408101516040830152606081015160608301526080810151608083015260a081015160a083015260c081015160c08301525050565b60e081016108368284613251565b6000806000606084860312156132b857600080fd5b83356132c381613173565b925060208401356132d381613173565b929592945050506040919091013590565b6001600160a01b0391909116815260200190565b803564ffffffffff8116811461319357600080fd5b803561ffff8116811461319357600080fd5b60008060006060848603121561333457600080fd5b83359250613344602085016132f8565b91506133526040850161330d565b90509250925092565b6000806040838503121561336e57600080fd5b613377836132f8565b91506133856020840161330d565b90509250929050565b600080604083850312156133a157600080fd5b8235915060208301356133b381613173565b809150509250929050565b634e487b7160e01b600052604160045260246000fd5b600082601f8301126133e557600080fd5b81356001600160401b03808211156133ff576133ff6133be565b604051601f8301601f19908116603f01168101908282118183101715613427576134276133be565b8160405283815286602085880101111561344057600080fd5b836020870160208301376000602085830101528094505050505092915050565b6000806000806000806000806000806101408b8d03121561348057600080fd5b8a356001600160401b038082111561349757600080fd5b6134a38e838f016133d4565b9b5060208d01359150808211156134b957600080fd5b506134c68d828e016133d4565b99505060408b0135975060608b0135965060808b0135955060a08b013594506134f160c08c01613188565b93506134ff60e08c01613188565b925061350e6101008c01613188565b915061351d6101208c01613188565b90509295989b9194979a5092959850565b60008060006060848603121561354357600080fd5b505081359360208301359350604090920135919050565b6020808252825182820181905260009190848201906040850190845b8181101561359c57613589838551613251565b9284019260e09290920191600101613576565b50909695505050505050565b600080604083850312156135bb57600080fd5b82356135c681613173565b915060208301356133b381613173565b6000602082840312156135e857600080fd5b5051919050565b600181811c9082168061360357607f821691505b60208210810361130b57634e487b7160e01b600052602260045260246000fd5b634e487b7160e01b600052601160045260246000fd5b8082018082111561083657610836613623565b634e487b7160e01b600052603260045260246000fd5b64ffffffffff92909216825261ffff16602082015260400190565b8181038181111561083657610836613623565b6000600182016136a2576136a2613623565b5060010190565b808202811582820484141761083657610836613623565b634e487b7160e01b600052601260045260246000fd5b6000826136f357634e487b7160e01b600052601260045260246000fd5b500490565b6001600160a01b03929092168252602082015260400190565b60006020828403121561372357600080fd5b815160ff8116811461091557600080fd5b600181815b8085111561376f57816000190482111561375557613755613623565b8085161561376257918102915b93841c9390800290613739565b509250929050565b60008261378657506001610836565b8161379357506000610836565b81600181146137a957600281146137b3576137cf565b6001915050610836565b60ff8411156137c4576137c4613623565b50506001821b610836565b5060208310610133831016604e8410600b84101617156137f2575081810a610836565b6137fc8383613734565b806000190482111561381057613810613623565b029392505050565b600061091560ff841683613777565b60006020828403121561383957600080fd5b8151801515811461091557600080fd5b6020808252602b908201527f496e697469616c697a61626c653a20636f6e7472616374206973206e6f74206960408201526a6e697469616c697a696e6760a81b606082015260800190565b60006001600160801b038281166002600160801b031981016138b8576138b8613623565b6001019392505050565b634e487b7160e01b600052602160045260246000fd5b601f8211156106fd57600081815260208120601f850160051c810160208610156138ff5750805b601f850160051c820191505b818110156119375782815560010161390b565b81516001600160401b03811115613937576139376133be565b61394b8161394584546135ef565b846138d8565b602080601f83116001811461398057600084156139685750858301515b600019600386901b1c1916600185901b178555611937565b600085815260208120601f198616915b828110156139af57888601518255948401946001909101908401613990565b50858210156139cd5787850151600019600388901b60f8161c191681555b5050505050600190811b01905550565b600082516139ef8184602087016131b5565b919091019291505056fe4c6971756964697479506f6f6c3a3a5f766572696679506f6f6c506172616d65ddf252ad1be2c89b69c2b068fc378daa952ba7f163c4a11628f55a4df523b3efa2646970667358221220ff03020ed753bb47581d95c5420f4bfba889594374cd262408c7987436a9ebb364736f6c63430008110033",
    "linkReferences": {}
  },
  "methodIdentifiers": {
    "addPool(uint40,uint16)": "4507d9f6",
    "allowance(address,address)": "dd62ed3e",
    "approve(address,uint256)": "095ea7b3",
    "asset()": "38d52e0f",
    "availableLiquidity()": "74375359",
    "balanceOf(address)": "70a08231",
    "canTransferLps(address)": "8f8068f9",
    "canWithdrawLps(address)": "ecc85790",
    "controller()": "f77c4791",
    "convertToAssets(uint256)": "07a2d13a",
    "convertToShares(uint256)": "c6e6f592",
    "decimals()": "313ce567",
    "decreaseAllowance(address,uint256)": "a457c2d7",
    "defaultLockTime()": "7e18f27f",
    "deposit(uint256,uint256)": "e2bbb158",
    "depositAndLock(uint256,uint256,uint256)": "8b8f55f0",
    "depositFees(uint256)": "ebdac090",
    "depositProfit(uint256)": "33c19ab0",
    "earlyWithdrawalFee()": "16330d40",
    "earlyWithdrawalTime()": "abfb6271",
    "easyXOwner()": "8e1e682d",
    "increaseAllowance(address,uint256)": "39509351",
    "initialize(string,string,uint256,uint256,uint256,uint256,address,address,address,address)": "5a9adde6",
    "lastDepositTime(address)": "02527753",
    "lockShares(uint256,uint256)": "008c687e",
    "minimumAmount()": "bb0c8298",
    "name()": "06fdde03",
    "pools(uint256)": "ac4afa38",
    "previewDeposit(uint256)": "ef8b30f7",
    "previewMint(uint256)": "b3d7f6b9",
    "previewPoolOf(address,uint256)": "2162fe94",
    "previewPoolsOf(address)": "d0251d27",
    "previewRedeem(uint256)": "4cdad506",
    "previewRedeemPoolShares(uint256,uint256)": "fdb51138",
    "previewWithdraw(uint256)": "0a28a477",
    "requestLossPayout(uint256)": "88cf36db",
    "symbol()": "95d89b41",
    "totalAssets()": "01e1d114",
    "totalSupply()": "18160ddd",
    "transfer(address,uint256)": "a9059cbb",
    "transferFrom(address,address,uint256)": "23b872dd",
    "unlockShares(uint256,uint256)": "e9274584",
    "updateDefaultLockTime(uint256)": "de4cd4f4",
    "updateEarlyWithdrawalFee(uint256)": "3632e6c6",
    "updateEarlyWithdrawalTime(uint256)": "dea71b66",
    "updateMinimumAmount(uint256)": "bb8e5b57",
    "updatePool(uint256,uint40,uint16)": "427eb106",
    "userPoolInfo(uint256,address)": "4e27072a",
    "userWithdrawalFee(address)": "a7fac4f8",
    "withdraw(uint256,uint256)": "441a3e70",
    "withdrawFromPool(uint256,uint256,uint256)": "a1ce6d08"
  },
  "id": 111
}